{
  "contractName": "Admin",
  "abi": [
    {
      "inputs": [],
      "payable": false,
      "stateMutability": "nonpayable",
      "type": "constructor"
    },
    {
      "constant": true,
      "inputs": [],
      "name": "owner",
      "outputs": [
        {
          "internalType": "address",
          "name": "",
          "type": "address"
        }
      ],
      "payable": false,
      "stateMutability": "view",
      "type": "function"
    },
    {
      "constant": false,
      "inputs": [
        {
          "internalType": "address",
          "name": "EthAddress",
          "type": "address"
        },
        {
          "internalType": "string",
          "name": "Name",
          "type": "string"
        },
        {
          "internalType": "string",
          "name": "Location",
          "type": "string"
        },
        {
          "internalType": "string",
          "name": "Description",
          "type": "string"
        },
        {
          "internalType": "uint256",
          "name": "Role",
          "type": "uint256"
        }
      ],
      "name": "registerUser",
      "outputs": [],
      "payable": false,
      "stateMutability": "nonpayable",
      "type": "function"
    },
    {
      "constant": true,
      "inputs": [
        {
          "internalType": "address",
          "name": "_employeeAddress",
          "type": "address"
        }
      ],
      "name": "isEmployee",
      "outputs": [
        {
          "internalType": "bool",
          "name": "",
          "type": "bool"
        }
      ],
      "payable": false,
      "stateMutability": "view",
      "type": "function"
    },
    {
      "constant": true,
      "inputs": [
        {
          "internalType": "address",
          "name": "_organizationEndorser",
          "type": "address"
        }
      ],
      "name": "isOrganizationEndorser",
      "outputs": [
        {
          "internalType": "bool",
          "name": "",
          "type": "bool"
        }
      ],
      "payable": false,
      "stateMutability": "view",
      "type": "function"
    },
    {
      "constant": true,
      "inputs": [],
      "name": "employeeCount",
      "outputs": [
        {
          "internalType": "uint256",
          "name": "",
          "type": "uint256"
        }
      ],
      "payable": false,
      "stateMutability": "view",
      "type": "function"
    },
    {
      "constant": true,
      "inputs": [
        {
          "internalType": "address",
          "name": "_employee",
          "type": "address"
        }
      ],
      "name": "getEmployeeContractByAddress",
      "outputs": [
        {
          "internalType": "address",
          "name": "",
          "type": "address"
        }
      ],
      "payable": false,
      "stateMutability": "view",
      "type": "function"
    },
    {
      "constant": true,
      "inputs": [
        {
          "internalType": "uint256",
          "name": "index",
          "type": "uint256"
        }
      ],
      "name": "getEmployeeContractByIndex",
      "outputs": [
        {
          "internalType": "address",
          "name": "",
          "type": "address"
        }
      ],
      "payable": false,
      "stateMutability": "view",
      "type": "function"
    },
    {
      "constant": true,
      "inputs": [],
      "name": "OrganizationEndorserCount",
      "outputs": [
        {
          "internalType": "uint256",
          "name": "",
          "type": "uint256"
        }
      ],
      "payable": false,
      "stateMutability": "view",
      "type": "function"
    },
    {
      "constant": true,
      "inputs": [
        {
          "internalType": "address",
          "name": "_organization",
          "type": "address"
        }
      ],
      "name": "getOrganizationContractByAddress",
      "outputs": [
        {
          "internalType": "address",
          "name": "",
          "type": "address"
        }
      ],
      "payable": false,
      "stateMutability": "view",
      "type": "function"
    },
    {
      "constant": true,
      "inputs": [
        {
          "internalType": "uint256",
          "name": "index",
          "type": "uint256"
        }
      ],
      "name": "getOrganizationContractByIndex",
      "outputs": [
        {
          "internalType": "address",
          "name": "",
          "type": "address"
        }
      ],
      "payable": false,
      "stateMutability": "view",
      "type": "function"
    }
  ],
  "bytecode": "0x608060405234801561001057600080fd5b5060008054600160a060020a0319163317905561481a806100326000396000f3fe60806040523480156200001157600080fd5b5060043610620000c9576000357c0100000000000000000000000000000000000000000000000000000000900480638da5cb5b116200008c5780638da5cb5b14620003645780639047bf58146200036e578063bf5a94b6146200038a578063c684ba281462000394578063ea66543f14620003bd57620000c9565b806315d809f914620000ce57806316ab8a35146200010a578063323ddfc41462000147578063447a81fe14620001705780636f93dc561462000190575b600080fd5b620000ee60048036036020811015620000e657600080fd5b5035620003e6565b60408051600160a060020a039092168252519081900360200190f35b62000133600480360360208110156200012257600080fd5b5035600160a060020a03166200041b565b604080519115158252519081900360200190f35b620000ee600480360360208110156200015f57600080fd5b5035600160a060020a03166200043b565b620000ee600480360360208110156200018857600080fd5b503562000459565b62000362600480360360a0811015620001a857600080fd5b600160a060020a038235169190810190604081016020820135640100000000811115620001d457600080fd5b820183602082011115620001e757600080fd5b803590602001918460018302840111640100000000831117156200020a57600080fd5b91908080601f01602080910402602001604051908101604052809392919081815260200183838082843760009201919091525092959493602081019350359150506401000000008111156200025e57600080fd5b8201836020820111156200027157600080fd5b803590602001918460018302840111640100000000831117156200029457600080fd5b91908080601f0160208091040260200160405190810160405280939291908181526020018383808284376000920191909152509295949360208101935035915050640100000000811115620002e857600080fd5b820183602082011115620002fb57600080fd5b803590602001918460018302840111640100000000831117156200031e57600080fd5b91908080601f016020809104026020016040519081016040528093929190818152602001838380828437600092019190915250929550509135925062000488915050565b005b620000ee6200091b565b620003786200092a565b60408051918252519081900360200190f35b6200037862000930565b620000ee60048036036020811015620003ac57600080fd5b5035600160a060020a031662000936565b6200013360048036036020811015620003d557600080fd5b5035600160a060020a031662000954565b60006200041560048381548110620003fa57fe5b600091825260209091200154600160a060020a031662000936565b92915050565b600160a060020a0390811660009081526002602052604090205416151590565b600160a060020a039081166000908152600160205260409020541690565b600062000415600383815481106200046d57fe5b600091825260209091200154600160a060020a03166200043b565b600054600160a060020a03163314620004a057600080fd5b8060011415620006e25760008060009054906101000a9004600160a060020a031686868686604051620004d39062000974565b8086600160a060020a0316600160a060020a0316815260200185600160a060020a0316600160a060020a03168152602001806020018060200180602001848103845287818151815260200191508051906020019080838360005b83811015620005475781810151838201526020016200052d565b50505050905090810190601f168015620005755780820380516001836020036101000a031916815260200191505b50848103835286518152865160209182019188019080838360005b83811015620005aa57818101518382015260200162000590565b50505050905090810190601f168015620005d85780820380516001836020036101000a031916815260200191505b50848103825285518152855160209182019187019080838360005b838110156200060d578181015183820152602001620005f3565b50505050905090810190601f1680156200063b5780820380516001836020036101000a031916815260200191505b5098505050505050505050604051809103906000f08015801562000663573d6000803e3d6000fd5b50600160a060020a038088166000818152600160208190526040822080549490951673ffffffffffffffffffffffffffffffffffffffff199485161790945560038054948501815590527fc2575a0e9e593c00f959f8c92f12db2869c3395a3b0502d05e2516446f71f85b909201805490911690911790555062000914565b60008060009054906101000a9004600160a060020a0316868686866040516200070b9062000982565b8086600160a060020a0316600160a060020a0316815260200185600160a060020a0316600160a060020a03168152602001806020018060200180602001848103845287818151815260200191508051906020019080838360005b838110156200077f57818101518382015260200162000765565b50505050905090810190601f168015620007ad5780820380516001836020036101000a031916815260200191505b50848103835286518152865160209182019188019080838360005b83811015620007e2578181015183820152602001620007c8565b50505050905090810190601f168015620008105780820380516001836020036101000a031916815260200191505b50848103825285518152855160209182019187019080838360005b83811015620008455781810151838201526020016200082b565b50505050905090810190601f168015620008735780820380516001836020036101000a031916815260200191505b5098505050505050505050604051809103906000f0801580156200089b573d6000803e3d6000fd5b50600160a060020a03808816600081815260026020526040812080549390941673ffffffffffffffffffffffffffffffffffffffff19938416179093556004805460018101825593527f8a35acfbc15ff81a39ae7d344fd709f28e8600b4aa8c65c6b64bfe7fe36bd19b90920180549091169091179055505b5050505050565b600054600160a060020a031681565b60035490565b60045490565b600160a060020a039081166000908152600260205260409020541690565b600160a060020a0390811660009081526001602052604090205416151590565b6135eb806200099183390190565b61086a8062003f7c8339019056fe60806040523480156200001157600080fd5b50604051620035eb380380620035eb833981810160405260a08110156200003757600080fd5b815160208301516040808501805191519395929483019291846401000000008211156200006357600080fd5b9083019060208201858111156200007957600080fd5b82516401000000008111828201881017156200009457600080fd5b82525081516020918201929091019080838360005b83811015620000c3578181015183820152602001620000a9565b50505050905090810190601f168015620000f15780820380516001836020036101000a031916815260200191505b50604052602001805160405193929190846401000000008211156200011557600080fd5b9083019060208201858111156200012b57600080fd5b82516401000000008111828201881017156200014657600080fd5b82525081516020918201929091019080838360005b83811015620001755781810151838201526020016200015b565b50505050905090810190601f168015620001a35780820380516001836020036101000a031916815260200191505b5060405260200180516040519392919084640100000000821115620001c757600080fd5b908301906020820185811115620001dd57600080fd5b8251640100000000811182820188101715620001f857600080fd5b82525081516020918201929091019080838360005b83811015620002275781810151838201526020016200020d565b50505050905090810190601f168015620002555780820380516001836020036101000a031916815260200191505b50604052505060008054600160a060020a031916600160a060020a0388161790555082516200028c906006906020860190620002e5565b5060018054600160a060020a031916600160a060020a0386161790558151620002bd906002906020850190620002e5565b508051620002d3906003906020840190620002e5565b50506000600555506200038a92505050565b828054600181600116156101000203166002900490600052602060002090601f016020900481019282601f106200032857805160ff191683800117855562000358565b8280016001018555821562000358579182015b82811115620003585782518255916020019190600101906200033b565b50620003669291506200036a565b5090565b6200038791905b8082111562000366576000815560010162000371565b90565b613251806200039a6000396000f3fe608060405234801561001057600080fd5b506004361061015f576000357c010000000000000000000000000000000000000000000000000000000090048063c07f7d16116100d5578063eda3467c11610099578063eda3467c14610d4e578063f1d9efb214610df4578063f5e616a614611040578063fc017f2514611048578063fdb10361146111fc578063fee7989e146113315761015f565b8063c07f7d161461079b578063cf6431c61461095f578063d57e0ad614610a05578063d862ae8714610bfb578063e260175114610d285761015f565b80636212fa02116101275780636212fa02146103c2578063645f29a8146103ca5780637b1d2d001461054f5780637c067d8d1461060357806394fb3da714610620578063a3e3bf7d146106285761015f565b806305f53b29146101645780632186879c1461017e578063444fc6621461022657806344afd134146103b257806344f034ae146103ba575b600080fd5b61016c6113f1565b60408051918252519081900360200190f35b6102246004803603602081101561019457600080fd5b8101906020810181356401000000008111156101af57600080fd5b8201836020820111156101c157600080fd5b803590602001918460018302840111640100000000831117156101e357600080fd5b91908080601f0160208091040260200160405190810160405280939291908181526020018383808284376000920191909152509295506113f8945050505050565b005b6102436004803603602081101561023c57600080fd5b5035611508565b6040805160208082018990528615156060830152600160a060020a038616608083015283151560c083015260e08083528a51908301528951919283929083019160a08401916101008501918d019080838360005b838110156102af578181015183820152602001610297565b50505050905090810190601f1680156102dc5780820380516001836020036101000a031916815260200191505b5084810383528951815289516020918201918b019080838360005b8381101561030f5781810151838201526020016102f7565b50505050905090810190601f16801561033c5780820380516001836020036101000a031916815260200191505b50848103825286518152865160209182019188019080838360005b8381101561036f578181015183820152602001610357565b50505050905090810190601f16801561039c5780820380516001836020036101000a031916815260200191505b509a505050505050505050505060405180910390f35b61016c6115d4565b6102246115da565b61016c61161e565b6103e7600480360360208110156103e057600080fd5b5035611624565b6040518086600160a060020a0316600160a060020a0316815260200180602001806020018515151515815260200180602001848103845288818151815260200191508051906020019080838360005b8381101561044e578181015183820152602001610436565b50505050905090810190601f16801561047b5780820380516001836020036101000a031916815260200191505b50848103835287518152875160209182019189019080838360005b838110156104ae578181015183820152602001610496565b50505050905090810190601f1680156104db5780820380516001836020036101000a031916815260200191505b50848103825285518152855160209182019187019080838360005b8381101561050e5781810151838201526020016104f6565b50505050905090810190601f16801561053b5780820380516001836020036101000a031916815260200191505b509850505050505050505060405180910390f35b6102246004803603606081101561056557600080fd5b81019060208101813564010000000081111561058057600080fd5b82018360208201111561059257600080fd5b803590602001918460018302840111640100000000831117156105b457600080fd5b91908080601f01602080910402602001604051908101604052809392919081815260200183838082843760009201919091525092955050600160a060020a038335169350505060200135611669565b61016c6004803603602081101561061957600080fd5b50356117ee565b61016c61180c565b610630611812565b6040518087600160a060020a0316600160a060020a03168152602001806020018060200180602001868152602001858152602001848103845289818151815260200191508051906020019080838360005b83811015610699578181015183820152602001610681565b50505050905090810190601f1680156106c65780820380516001836020036101000a031916815260200191505b5084810383528851815288516020918201918a019080838360005b838110156106f95781810151838201526020016106e1565b50505050905090810190601f1680156107265780820380516001836020036101000a031916815260200191505b50848103825287518152875160209182019189019080838360005b83811015610759578181015183820152602001610741565b50505050905090810190601f1680156107865780820380516001836020036101000a031916815260200191505b50995050505050505050505060405180910390f35b610224600480360360808110156107b157600080fd5b600160a060020a0382351691908101906040810160208201356401000000008111156107dc57600080fd5b8201836020820111156107ee57600080fd5b8035906020019184600183028401116401000000008311171561081057600080fd5b91908080601f016020809104026020016040519081016040528093929190818152602001838380828437600092019190915250929594936020810193503591505064010000000081111561086357600080fd5b82018360208201111561087557600080fd5b8035906020019184600183028401116401000000008311171561089757600080fd5b91908080601f01602080910402602001604051908101604052809392919081815260200183838082843760009201919091525092959493602081019350359150506401000000008111156108ea57600080fd5b8201836020820111156108fc57600080fd5b8035906020019184600183028401116401000000008311171561091e57600080fd5b91908080601f016020809104026020016040519081016040528093929190818152602001838380828437600092019190915250929550611a0c945050505050565b6102246004803603602081101561097557600080fd5b81019060208101813564010000000081111561099057600080fd5b8201836020820111156109a257600080fd5b803590602001918460018302840111640100000000831117156109c457600080fd5b91908080601f016020809104026020016040519081016040528093929190818152602001838380828437600092019190915250929550611b55945050505050565b610a2260048036036020811015610a1b57600080fd5b5035611c45565b604051808060200188600160a060020a0316600160a060020a03168152602001806020018060200187151515158152602001806020018615151515815260200185810385528c818151815260200191508051906020019080838360005b83811015610a97578181015183820152602001610a7f565b50505050905090810190601f168015610ac45780820380516001836020036101000a031916815260200191505b5085810384528a5181528a516020918201918c019080838360005b83811015610af7578181015183820152602001610adf565b50505050905090810190601f168015610b245780820380516001836020036101000a031916815260200191505b5085810383528951815289516020918201918b019080838360005b83811015610b57578181015183820152602001610b3f565b50505050905090810190601f168015610b845780820380516001836020036101000a031916815260200191505b50858103825287518152875160209182019189019080838360005b83811015610bb7578181015183820152602001610b9f565b50505050905090810190601f168015610be45780820380516001836020036101000a031916815260200191505b509b50505050505050505050505060405180910390f35b61022460048036036040811015610c1157600080fd5b810190602081018135640100000000811115610c2c57600080fd5b820183602082011115610c3e57600080fd5b80359060200191846001830284011164010000000083111715610c6057600080fd5b91908080601f0160208091040260200160405190810160405280939291908181526020018383808284376000920191909152509295949360208101935035915050640100000000811115610cb357600080fd5b820183602082011115610cc557600080fd5b80359060200191846001830284011164010000000083111715610ce757600080fd5b91908080601f016020809104026020016040519081016040528093929190818152602001838380828437600092019190915250929550611c7c945050505050565b61022460048036036020811015610d3e57600080fd5b5035600160a060020a0316611e27565b61022460048036036020811015610d6457600080fd5b810190602081018135640100000000811115610d7f57600080fd5b820183602082011115610d9157600080fd5b80359060200191846001830284011164010000000083111715610db357600080fd5b91908080601f016020809104026020016040519081016040528093929190818152602001838380828437600092019190915250929550611e62945050505050565b610224600480360360a0811015610e0a57600080fd5b810190602081018135640100000000811115610e2557600080fd5b820183602082011115610e3757600080fd5b80359060200191846001830284011164010000000083111715610e5957600080fd5b91908080601f0160208091040260200160405190810160405280939291908181526020018383808284376000920191909152509295600160a060020a03853516959094909350604081019250602001359050640100000000811115610ebd57600080fd5b820183602082011115610ecf57600080fd5b80359060200191846001830284011164010000000083111715610ef157600080fd5b91908080601f0160208091040260200160405190810160405280939291908181526020018383808284376000920191909152509295949360208101935035915050640100000000811115610f4457600080fd5b820183602082011115610f5657600080fd5b80359060200191846001830284011164010000000083111715610f7857600080fd5b91908080601f0160208091040260200160405190810160405280939291908181526020018383808284376000920191909152509295949360208101935035915050640100000000811115610fcb57600080fd5b820183602082011115610fdd57600080fd5b80359060200191846001830284011164010000000083111715610fff57600080fd5b91908080601f016020809104026020016040519081016040528093929190818152602001838380828437600092019190915250929550611f57945050505050565b6102246120ec565b6102246004803603606081101561105e57600080fd5b81019060208101813564010000000081111561107957600080fd5b82018360208201111561108b57600080fd5b803590602001918460018302840111640100000000831117156110ad57600080fd5b91908080601f016020809104026020016040519081016040528093929190818152602001838380828437600092019190915250929594936020810193503591505064010000000081111561110057600080fd5b82018360208201111561111257600080fd5b8035906020019184600183028401116401000000008311171561113457600080fd5b91908080601f016020809104026020016040519081016040528093929190818152602001838380828437600092019190915250929594936020810193503591505064010000000081111561118757600080fd5b82018360208201111561119957600080fd5b803590602001918460018302840111640100000000831117156111bb57600080fd5b91908080601f01602080910402602001604051908101604052809392919081815260200183838082843760009201919091525092955061212d945050505050565b6102246004803603606081101561121257600080fd5b81019060208101813564010000000081111561122d57600080fd5b82018360208201111561123f57600080fd5b8035906020019184600183028401116401000000008311171561126157600080fd5b91908080601f016020809104026020016040519081016040528093929190818152602001838380828437600092019190915250929584359590949093506040810192506020013590506401000000008111156112bc57600080fd5b8201836020820111156112ce57600080fd5b803590602001918460018302840111640100000000831117156112f057600080fd5b91908080601f016020809104026020016040519081016040528093929190818152602001838380828437600092019190915250929550612185945050505050565b61134e6004803603602081101561134757600080fd5b5035612411565b60408051600160a060020a0386166020808301919091529181018590528315156060820152821515608082015260a080825287519082015286519091829160c083019189019080838360005b838110156113b257818101518382015260200161139a565b50505050905090810190601f1680156113df5780820380516001836020036101000a031916815260200191505b50965050505050505060405180910390f35b6008545b90565b600154600160a060020a0316331461140f57600080fd5b6009816040518082805190602001908083835b602083106114415780518252601f199092019160209182019101611422565b6001836020036101000a038019825116818451168082178552505050505050905001915050908152602001604051809103902060030160019054906101000a900460ff16156009826040518082805190602001908083835b602083106114b85780518252601f199092019160209182019101611499565b6001836020036101000a038019825116818451168082178552505050505050905001915050908152602001604051809103902060030160016101000a81548160ff02191690831515021790555050565b606060006060600080606060006115bd6008898154811061152557fe5b600091825260209182902001805460408051601f60026000196101006001871615020190941693909304928301859004850281018501909152818152928301828280156115b35780601f10611588576101008083540402835291602001916115b3565b820191906000526020600020905b81548152906001019060200180831161159657829003601f168201915b50505050506124c1565b959e949d50929b5090995097509550909350915050565b600a5490565b336000908152600b6020526040902060010154600160a060020a03166115ff57600080fd5b336000908152600b60205260409020600401805460ff19166001179055565b600e5490565b600060608060006060611657600e878154811061163d57fe5b600091825260209091200154600160a060020a0316612982565b939a9299509097509550909350915050565b600154600160a060020a0316331461168057600080fd5b611688613088565b838152600160a060020a038316602080830191909152604080830184905260006060840152600160808401525185518392600992889290918291908401908083835b602083106116e95780518252601f1990920191602091820191016116ca565b51815160209384036101000a600019018019909216911617905292019485525060405193849003810190932084518051919461172a945085935001906130b6565b506020828101516001838101805473ffffffffffffffffffffffffffffffffffffffff1916600160a060020a03909316929092179091556040840151600284015560608401516003909301805460809095015160ff199095169315159390931761ff0019166101009415159490940293909317909155600a8054928301808255600091909152865190926117e6927fc65a7bb8d6351c1cf70c95a316cc6a92839c986682d98bc35f958f4883f9d2a890910191908801906130b6565b505050505050565b600481815481106117fb57fe5b600091825260209091200154905081565b600c5490565b60006060806060600080600160009054906101000a9004600160a060020a03166006600260036000600554848054600181600116156101000203166002900480601f0160208091040260200160405190810160405280929190818152602001828054600181600116156101000203166002900480156118d25780601f106118a7576101008083540402835291602001916118d2565b820191906000526020600020905b8154815290600101906020018083116118b557829003601f168201915b5050875460408051602060026001851615610100026000190190941693909304601f8101849004840282018401909252818152959a50899450925084019050828280156119605780601f1061193557610100808354040283529160200191611960565b820191906000526020600020905b81548152906001019060200180831161194357829003601f168201915b5050865460408051602060026001851615610100026000190190941693909304601f8101849004840282018401909252818152959950889450925084019050828280156119ee5780601f106119c3576101008083540402835291602001916119ee565b820191906000526020600020905b8154815290600101906020018083116119d157829003601f168201915b50505050509250819150955095509550955095509550909192939495565b600154600160a060020a03163314611a2357600080fd5b611a2b613134565b600160a060020a038581168083526020808401878152604080860188905260006060870181905260808701889052938452600d83529092208451815473ffffffffffffffffffffffffffffffffffffffff1916941693909317835590518051849392611a9e9260018501929101906130b6565b5060408201518051611aba9160028401916020909101906130b6565b50606082015160038201805460ff191691151591909117905560808201518051611aee9160048401916020909101906130b6565b5050600e80546001810182556000919091527fbb7b4a454dc3493923482f07822329ed19e8244eff582cc204f8554c3620c3fd01805473ffffffffffffffffffffffffffffffffffffffff1916600160a060020a0397909716969096179095555050505050565b6009816040518082805190602001908083835b60208310611b875780518252601f199092019160209182019101611b68565b51815160209384036101000a6000190180199092169116179052920194855250604051938490030190922060010154600160a060020a031633149150611bce905057600080fd5b60016009826040518082805190602001908083835b60208310611c025780518252601f199092019160209182019101611be3565b51815160209384036101000a60001901801990921691161790529201948552506040519384900301909220600301805460ff191693151593909317909255505050565b606060006060806000606060006115bd600c8981548110611c6257fe5b600091825260209091200154600160a060020a0316612b7f565b600154600160a060020a03163314611c9357600080fd5b611c9b61316e565b8281526040808201839052600060208084018290526060840191909152600160c0840152905184518392600792879290918291908401908083835b60208310611cf55780518252601f199092019160209182019101611cd6565b51815160209384036101000a6000190180199092169116179052920194855250604051938490038101909320845180519194611d36945085935001906130b6565b50602082810151600183015560408301518051611d5992600285019201906130b6565b5060608201516003820180546080850151600160a060020a03166101000274ffffffffffffffffffffffffffffffffffffffff001993151560ff19909216919091179290921691909117905560a08201518051611dc09160048401916020909101906130b6565b5060c091909101516005909101805460ff191691151591909117905560088054600181018083556000929092528451611e20917ff3f7a9fe364faab93b216da50a3214154f22a0a2b415b23a84c8169e8b636ee3019060208701906130b6565b5050505050565b600154600160a060020a03163314611e3e57600080fd5b600160a060020a03166000908152600b60205260409020600601805460ff19169055565b600154600160a060020a03163314611e7957600080fd5b6007816040518082805190602001908083835b60208310611eab5780518252601f199092019160209182019101611e8c565b51815160209384036101000a6000190180199092169116179052920194855250604051938490038101842060050154855160ff909116159460079450869350918291908401908083835b60208310611f145780518252601f199092019160209182019101611ef5565b51815160209384036101000a60001901801990921691161790529201948552506040519384900301909220600501805460ff191693151593909317909255505050565b600154600160a060020a03163314611f6e57600080fd5b611f766131b8565b858152600160a060020a0385166020808301829052604080840187905260608401869052600060808501819052600160c086015260a08501869052928352600b8252909120825180518493611fcf9284929101906130b6565b5060208281015160018301805473ffffffffffffffffffffffffffffffffffffffff1916600160a060020a039092169190911790556040830151805161201b92600285019201906130b6565b50606082015180516120379160038401916020909101906130b6565b50608082015160048201805460ff191691151591909117905560a0820151805161206b9160058401916020909101906130b6565b5060c091909101516006909101805460ff19169115159190911790555050600c80546001810182556000919091527fdf6966c971051c3d54ec59162606531493a51404a002842f56009d7e5cf4a8c701805473ffffffffffffffffffffffffffffffffffffffff1916600160a060020a039490941693909317909255505050565b336000908152600d6020526040902054600160a060020a031661210e57600080fd5b336000908152600d60205260409020600301805460ff19166001179055565b600154600160a060020a0316331461214457600080fd5b82516121579060069060208601906130b6565b50815161216b9060029060208501906130b6565b50805161217f9060039060208401906130b6565b50505050565b6007836040518082805190602001908083835b602083106121b75780518252601f199092019160209182019101612198565b51815160209384036101000a600019018019909216911617905292019485525060405193849003019092206005015460ff1691506121f6905057600080fd5b816007846040518082805190602001908083835b602083106122295780518252601f19909201916020918201910161220a565b51815160209384036101000a600019018019909216911617905292019485525060405193849003810184206001908101959095556004805480870182556000919091527f8a35acfbc15ff81a39ae7d344fd709f28e8600b4aa8c65c6b64bfe7fe36bd19b0187905560058054860190558751600794899450925082918401908083835b602083106122cb5780518252601f1990920191602091820191016122ac565b51815160209384036101000a60001901801990921691161790529201948552506040519384900381018420600301805460ff191695151595909517909455505084513392600792879290918291908401908083835b6020831061233f5780518252601f199092019160209182019101612320565b6001836020036101000a038019825116818451168082178552505050505050905001915050908152602001604051809103902060030160016101000a815481600160a060020a030219169083600160a060020a03160217905550806007846040518082805190602001908083835b602083106123cc5780518252601f1990920191602091820191016123ad565b51815160209384036101000a6000190180199092169116179052920194855250604051938490038101909320845161217f9560049092019491909101925090506130b6565b6060600080600080611657600a878154811061242957fe5b600091825260209182902001805460408051601f60026000196101006001871615020190941693909304928301859004850281018501909152818152928301828280156124b75780601f1061248c576101008083540402835291602001916124b7565b820191906000526020600020905b81548152906001019060200180831161249a57829003601f168201915b5050505050612dd8565b606060006060600080606060006007886040518082805190602001908083835b602083106125005780518252601f1990920191602091820191016124e1565b51815160209384036101000a600019018019909216911617905292019485525060405193849003810184208c519094600794508d9350918291908401908083835b602083106125605780518252601f199092019160209182019101612541565b51815160209384036101000a60001901801990921691161790529201948552506040519384900381018420600101548d519094600794508e9350918291908401908083835b602083106125c45780518252601f1990920191602091820191016125a5565b6001836020036101000a038019825116818451168082178552505050505050905001915050908152602001604051809103902060020160078b6040518082805190602001908083835b6020831061262c5780518252601f19909201916020918201910161260d565b6001836020036101000a038019825116818451168082178552505050505050905001915050908152602001604051809103902060030160009054906101000a900460ff1660078c6040518082805190602001908083835b602083106126a25780518252601f199092019160209182019101612683565b6001836020036101000a038019825116818451168082178552505050505050905001915050908152602001604051809103902060030160019054906101000a9004600160a060020a031660078d6040518082805190602001908083835b6020831061271e5780518252601f1990920191602091820191016126ff565b6001836020036101000a038019825116818451168082178552505050505050905001915050908152602001604051809103902060040160078e6040518082805190602001908083835b602083106127865780518252601f199092019160209182019101612767565b518151600019602094850361010090810a82019283169219939093169190911790925294909201968752604080519788900382018820600501548e54601f600260018316159098029095011695909504928301829004820288018201905281875260ff9093169594508b93509184019050828280156128465780601f1061281b57610100808354040283529160200191612846565b820191906000526020600020905b81548152906001019060200180831161282957829003601f168201915b5050885460408051602060026001851615610100026000190190941693909304601f8101849004840282018401909252818152959c508a9450925084019050828280156128d45780601f106128a9576101008083540402835291602001916128d4565b820191906000526020600020905b8154815290600101906020018083116128b757829003601f168201915b5050855460408051602060026001851615610100026000190190941693909304601f8101849004840282018401909252818152959a50879450925084019050828280156129625780601f1061293757610100808354040283529160200191612962565b820191906000526020600020905b81548152906001019060200180831161294557829003601f168201915b505050505091509650965096509650965096509650919395979092949650565b600160a060020a038181166000908152600d60209081526040808320805460038201546001808401805486516002610100948316159490940260001901909116839004601f8101899004890282018901909752868152979860609889988b988a98979093169693959484019460ff1693600401928691830182828015612a495780601f10612a1e57610100808354040283529160200191612a49565b820191906000526020600020905b815481529060010190602001808311612a2c57829003601f168201915b5050865460408051602060026001851615610100026000190190941693909304601f810184900484028201840190925281815295995088945092508401905082828015612ad75780601f10612aac57610100808354040283529160200191612ad7565b820191906000526020600020905b815481529060010190602001808311612aba57829003601f168201915b5050845460408051602060026001851615610100026000190190941693909304601f810184900484028201840190925281815295985086945092508401905082828015612b655780601f10612b3a57610100808354040283529160200191612b65565b820191906000526020600020905b815481529060010190602001808311612b4857829003601f168201915b505050505090509450945094509450945091939590929450565b600160a060020a038181166000908152600b6020908152604080832060018082015460048301546006840154845486516002610100968316159690960260001901909116859004601f81018990048902820189019097528681526060998a9889988b988a988a989197919094169593870194600388019460ff9283169460058a019493909116928991830182828015612c595780601f10612c2e57610100808354040283529160200191612c59565b820191906000526020600020905b815481529060010190602001808311612c3c57829003601f168201915b5050885460408051602060026001851615610100026000190190941693909304601f8101849004840282018401909252818152959c508a945092508401905082828015612ce75780601f10612cbc57610100808354040283529160200191612ce7565b820191906000526020600020905b815481529060010190602001808311612cca57829003601f168201915b5050875460408051602060026001851615610100026000190190941693909304601f8101849004840282018401909252818152959a5089945092508401905082828015612d755780601f10612d4a57610100808354040283529160200191612d75565b820191906000526020600020905b815481529060010190602001808311612d5857829003601f168201915b5050855460408051602060026001851615610100026000190190941693909304601f8101849004840282018401909252818152959950879450925084019050828280156129625780601f1061293757610100808354040283529160200191612962565b60606000806000806009866040518082805190602001908083835b60208310612e125780518252601f199092019160209182019101612df3565b51815160209384036101000a600019018019909216911617905292019485525060405193849003810184208a519094600994508b9350918291908401908083835b60208310612e725780518252601f199092019160209182019101612e53565b51815160209384036101000a60001901801990921691161790529201948552506040519384900381018420600101548b51600160a060020a0390911694600994508c9350918291908401908083835b60208310612ee05780518252601f199092019160209182019101612ec1565b51815160209384036101000a60001901801990921691161790529201948552506040519384900381018420600201548c519094600994508d9350918291908401908083835b60208310612f445780518252601f199092019160209182019101612f25565b51815160209384036101000a60001901801990921691161790529201948552506040519384900381018420600301548d5160ff90911694600994508e9350918291908401908083835b60208310612fac5780518252601f199092019160209182019101612f8d565b518151602093840361010090810a6000199081018019909416939092169290921790925292909401968752604080519788900382018820600301548c546002600182161586029097011695909504601f81018390048302890183019091528088529190930460ff1695945089935091840190508282801561306e5780601f106130435761010080835404028352916020019161306e565b820191906000526020600020905b81548152906001019060200180831161305157829003601f168201915b505050505094509450945094509450945091939590929450565b6040805160a08101825260608082526000602083018190529282018390528101829052608081019190915290565b828054600181600116156101000203166002900490600052602060002090601f016020900481019282601f106130f757805160ff1916838001178555613124565b82800160010185558215613124579182015b82811115613124578251825591602001919060010190613109565b50613130929150613202565b5090565b6040518060a001604052806000600160a060020a031681526020016060815260200160608152602001600015158152602001606081525090565b6040518060e001604052806060815260200160008152602001606081526020016000151581526020016000600160a060020a03168152602001606081526020016000151581525090565b6040518060e00160405280606081526020016000600160a060020a031681526020016060815260200160608152602001600015158152602001606081526020016000151581525090565b6113f591905b80821115613130576000815560010161320856fea265627a7a7231582068984dd4cc09bb9575c3f98da2692113c609c94b022f366e82e76a60cc176a1664736f6c63430005100032608060405234801561001057600080fd5b5060405161086a38038061086a833981810160405260a081101561003357600080fd5b8151602083015160408085018051915193959294830192918464010000000082111561005e57600080fd5b90830190602082018581111561007357600080fd5b825164010000000081118282018810171561008d57600080fd5b82525081516020918201929091019080838360005b838110156100ba5781810151838201526020016100a2565b50505050905090810190601f1680156100e75780820380516001836020036101000a031916815260200191505b506040526020018051604051939291908464010000000082111561010a57600080fd5b90830190602082018581111561011f57600080fd5b825164010000000081118282018810171561013957600080fd5b82525081516020918201929091019080838360005b8381101561016657818101518382015260200161014e565b50505050905090810190601f1680156101935780820380516001836020036101000a031916815260200191505b50604052602001805160405193929190846401000000008211156101b657600080fd5b9083019060208201858111156101cb57600080fd5b82516401000000008111828201881017156101e557600080fd5b82525081516020918201929091019080838360005b838110156102125781810151838201526020016101fa565b50505050905090810190601f16801561023f5780820380516001836020036101000a031916815260200191505b50604052505060008054600160a060020a031916600160a060020a0388161790555082516102749060019060208601906102c2565b5060028054600160a060020a031916600160a060020a03861617905581516102a39060039060208501906102c2565b5080516102b79060049060208401906102c2565b50505050505061035d565b828054600181600116156101000203166002900490600052602060002090601f016020900481019282601f1061030357805160ff1916838001178555610330565b82800160010185558215610330579182015b82811115610330578251825591602001919060010190610315565b5061033c929150610340565b5090565b61035a91905b8082111561033c5760008155600101610346565b90565b6104fe8061036c6000396000f3fe608060405234801561001057600080fd5b5060043610610067577c01000000000000000000000000000000000000000000000000000000006000350462ac8095811461006c57806352b9b9731461009457806359420e48146100ae578063e894d0a2146100e7575b600080fd5b6100926004803603602081101561008257600080fd5b5035600160a060020a031661024c565b005b61009c6102c2565b60408051918252519081900360200190f35b6100cb600480360360208110156100c457600080fd5b50356102c8565b60408051600160a060020a039092168252519081900360200190f35b6100ef6102f2565b604051808060200185600160a060020a0316600160a060020a031681526020018060200180602001848103845288818151815260200191508051906020019080838360005b8381101561014c578181015183820152602001610134565b50505050905090810190601f1680156101795780820380516001836020036101000a031916815260200191505b50848103835286518152865160209182019188019080838360005b838110156101ac578181015183820152602001610194565b50505050905090810190601f1680156101d95780820380516001836020036101000a031916815260200191505b50848103825285518152855160209182019187019080838360005b8381101561020c5781810151838201526020016101f4565b50505050905090810190601f1680156102395780820380516001836020036101000a031916815260200191505b5097505050505050505060405180910390f35b600254600160a060020a0316331461026357600080fd5b600580546001810182556000919091527f036b6384b5eca791c62761152d0c79bb0604c104a5fb6f4eb0703f3154bb3db001805473ffffffffffffffffffffffffffffffffffffffff1916600160a060020a0392909216919091179055565b60055490565b6000600582815481106102d757fe5b600091825260209091200154600160a060020a031692915050565b600280546001805460408051602061010084861615026000190190931695909504601f8101839004830286018301909152808552606094600094869485949093600160a060020a03909216926003926004928691908301828280156103985780601f1061036d57610100808354040283529160200191610398565b820191906000526020600020905b81548152906001019060200180831161037b57829003601f168201915b5050855460408051602060026001851615610100026000190190941693909304601f8101849004840282018401909252818152959950879450925084019050828280156104265780601f106103fb57610100808354040283529160200191610426565b820191906000526020600020905b81548152906001019060200180831161040957829003601f168201915b5050845460408051602060026001851615610100026000190190941693909304601f8101849004840282018401909252818152959750869450925084019050828280156104b45780601f10610489576101008083540402835291602001916104b4565b820191906000526020600020905b81548152906001019060200180831161049757829003601f168201915b5050505050905093509350935093509091929356fea265627a7a7231582036c4bbb831d2a620c6b16e88d187870a791fc7bfb6a6bc09a3e478a11163c0a864736f6c63430005100032a265627a7a723158208dac0f606e533c3de1f153d095860253010f3df443e3c80105397771e8f8e12064736f6c63430005100032",
  "source": "pragma solidity >=0.5.0 <0.9.0;\r\nimport \"./Employee.sol\";\r\nimport \"./OrganizationEndorser.sol\";\r\n\r\ncontract Admin {\r\n  address public owner;\r\n\r\n  constructor() public {\r\n    owner = msg.sender;\r\n  }\r\n\r\n  modifier onlyOwner() {\r\n    require(msg.sender == owner);\r\n    _;\r\n  }\r\n\r\n  mapping(address => address) registeredEmployeesmap;\r\n  mapping(address => address) registeredOrganizationmap;\r\n  address[] registeredEmployees;\r\n  address[] registeredOrganization;\r\n\r\n  function registerUser(\r\n    address EthAddress,\r\n    string memory Name,\r\n    string memory Location,\r\n    string memory Description,\r\n    uint256 Role\r\n  ) public onlyOwner {\r\n    if (Role == 1) {\r\n      Employee newEmployee = new Employee(\r\n        owner,\r\n        EthAddress,\r\n        Name,\r\n        Location,\r\n        Description\r\n      );\r\n      registeredEmployeesmap[EthAddress] = address(newEmployee);\r\n      registeredEmployees.push(EthAddress);\r\n    } else {\r\n      OrganizationEndorser newOrganizationEndorser = new OrganizationEndorser(\r\n        owner,\r\n        EthAddress,\r\n        Name,\r\n        Location,\r\n        Description\r\n      );\r\n      registeredOrganizationmap[EthAddress] = address(newOrganizationEndorser);\r\n      registeredOrganization.push(EthAddress);\r\n    }\r\n  }\r\n\r\n  /****************************************************************USER SECTION**************************************************/\r\n\r\n  function isEmployee(address _employeeAddress) public view returns (bool) {\r\n    return registeredEmployeesmap[_employeeAddress] != address(0x0);\r\n  }\r\n\r\n  function isOrganizationEndorser(address _organizationEndorser)\r\n    public\r\n    view\r\n    returns (bool)\r\n  {\r\n    return registeredOrganizationmap[_organizationEndorser] != address(0x0);\r\n  }\r\n\r\n  function employeeCount() public view returns (uint256) {\r\n    return registeredEmployees.length;\r\n  }\r\n\r\n  function getEmployeeContractByAddress(address _employee)\r\n    public\r\n    view\r\n    returns (address)\r\n  {\r\n    return registeredEmployeesmap[_employee];\r\n  }\r\n\r\n  function getEmployeeContractByIndex(uint256 index)\r\n    public\r\n    view\r\n    returns (address)\r\n  {\r\n    return getEmployeeContractByAddress(registeredEmployees[index]);\r\n  }\r\n\r\n  function OrganizationEndorserCount() public view returns (uint256) {\r\n    return registeredOrganization.length;\r\n  }\r\n\r\n  function getOrganizationContractByAddress(address _organization)\r\n    public\r\n    view\r\n    returns (address)\r\n  {\r\n    return registeredOrganizationmap[_organization];\r\n  }\r\n\r\n  function getOrganizationContractByIndex(uint256 index)\r\n    public\r\n    view\r\n    returns (address)\r\n  {\r\n    return getOrganizationContractByAddress(registeredOrganization[index]);\r\n  }\r\n}\r\n",
  "sourcePath": "C:\\Users\\FARHAN\\Desktop\\Practice\\BlockBuster_Bit-n-Build\\src\\contracts\\Admin.sol",
  "compiler": {
    "name": "solc",
    "version": "0.5.16+commit.9c3226ce.Emscripten.clang"
  },
  "schemaVersion": "3.4.13",
  "updatedAt": "2023-04-05T19:25:41.235Z",
  "networkType": "ethereum",
  "devdoc": {
    "methods": {}
  },
  "userdoc": {
    "methods": {
      "isEmployee(address)": {
        "notice": "**************************************************************USER SECTION*************************************************"
      }
    }
  }
}