{
  "contractName": "OrganizationEndorser",
  "abi": [
    {
      "inputs": [
        {
          "internalType": "address",
          "name": "_admin",
          "type": "address"
        },
        {
          "internalType": "address",
          "name": "_organization_address",
          "type": "address"
        },
        {
          "internalType": "string",
          "name": "_name",
          "type": "string"
        },
        {
          "internalType": "string",
          "name": "_description",
          "type": "string"
        },
        {
          "internalType": "string",
          "name": "_location",
          "type": "string"
        }
      ],
      "payable": false,
      "stateMutability": "nonpayable",
      "type": "constructor"
    },
    {
      "constant": true,
      "inputs": [],
      "name": "getOrganizationInfo",
      "outputs": [
        {
          "internalType": "string",
          "name": "",
          "type": "string"
        },
        {
          "internalType": "address",
          "name": "",
          "type": "address"
        },
        {
          "internalType": "string",
          "name": "",
          "type": "string"
        },
        {
          "internalType": "string",
          "name": "",
          "type": "string"
        }
      ],
      "payable": false,
      "stateMutability": "view",
      "type": "function"
    },
    {
      "constant": false,
      "inputs": [
        {
          "internalType": "address",
          "name": "employee_address",
          "type": "address"
        }
      ],
      "name": "addEmployees",
      "outputs": [],
      "payable": false,
      "stateMutability": "nonpayable",
      "type": "function"
    },
    {
      "constant": true,
      "inputs": [],
      "name": "totalEmployees",
      "outputs": [
        {
          "internalType": "uint256",
          "name": "",
          "type": "uint256"
        }
      ],
      "payable": false,
      "stateMutability": "view",
      "type": "function"
    },
    {
      "constant": true,
      "inputs": [
        {
          "internalType": "uint256",
          "name": "index",
          "type": "uint256"
        }
      ],
      "name": "getEmployeeByIndex",
      "outputs": [
        {
          "internalType": "address",
          "name": "",
          "type": "address"
        }
      ],
      "payable": false,
      "stateMutability": "view",
      "type": "function"
    }
  ],
  "bytecode": "0x608060405234801561001057600080fd5b5060405161086a38038061086a833981810160405260a081101561003357600080fd5b8151602083015160408085018051915193959294830192918464010000000082111561005e57600080fd5b90830190602082018581111561007357600080fd5b825164010000000081118282018810171561008d57600080fd5b82525081516020918201929091019080838360005b838110156100ba5781810151838201526020016100a2565b50505050905090810190601f1680156100e75780820380516001836020036101000a031916815260200191505b506040526020018051604051939291908464010000000082111561010a57600080fd5b90830190602082018581111561011f57600080fd5b825164010000000081118282018810171561013957600080fd5b82525081516020918201929091019080838360005b8381101561016657818101518382015260200161014e565b50505050905090810190601f1680156101935780820380516001836020036101000a031916815260200191505b50604052602001805160405193929190846401000000008211156101b657600080fd5b9083019060208201858111156101cb57600080fd5b82516401000000008111828201881017156101e557600080fd5b82525081516020918201929091019080838360005b838110156102125781810151838201526020016101fa565b50505050905090810190601f16801561023f5780820380516001836020036101000a031916815260200191505b50604052505060008054600160a060020a031916600160a060020a0388161790555082516102749060019060208601906102c2565b5060028054600160a060020a031916600160a060020a03861617905581516102a39060039060208501906102c2565b5080516102b79060049060208401906102c2565b50505050505061035d565b828054600181600116156101000203166002900490600052602060002090601f016020900481019282601f1061030357805160ff1916838001178555610330565b82800160010185558215610330579182015b82811115610330578251825591602001919060010190610315565b5061033c929150610340565b5090565b61035a91905b8082111561033c5760008155600101610346565b90565b6104fe8061036c6000396000f3fe608060405234801561001057600080fd5b5060043610610067577c01000000000000000000000000000000000000000000000000000000006000350462ac8095811461006c57806352b9b9731461009457806359420e48146100ae578063e894d0a2146100e7575b600080fd5b6100926004803603602081101561008257600080fd5b5035600160a060020a031661024c565b005b61009c6102c2565b60408051918252519081900360200190f35b6100cb600480360360208110156100c457600080fd5b50356102c8565b60408051600160a060020a039092168252519081900360200190f35b6100ef6102f2565b604051808060200185600160a060020a0316600160a060020a031681526020018060200180602001848103845288818151815260200191508051906020019080838360005b8381101561014c578181015183820152602001610134565b50505050905090810190601f1680156101795780820380516001836020036101000a031916815260200191505b50848103835286518152865160209182019188019080838360005b838110156101ac578181015183820152602001610194565b50505050905090810190601f1680156101d95780820380516001836020036101000a031916815260200191505b50848103825285518152855160209182019187019080838360005b8381101561020c5781810151838201526020016101f4565b50505050905090810190601f1680156102395780820380516001836020036101000a031916815260200191505b5097505050505050505060405180910390f35b600254600160a060020a0316331461026357600080fd5b600580546001810182556000919091527f036b6384b5eca791c62761152d0c79bb0604c104a5fb6f4eb0703f3154bb3db001805473ffffffffffffffffffffffffffffffffffffffff1916600160a060020a0392909216919091179055565b60055490565b6000600582815481106102d757fe5b600091825260209091200154600160a060020a031692915050565b600280546001805460408051602061010084861615026000190190931695909504601f8101839004830286018301909152808552606094600094869485949093600160a060020a03909216926003926004928691908301828280156103985780601f1061036d57610100808354040283529160200191610398565b820191906000526020600020905b81548152906001019060200180831161037b57829003601f168201915b5050855460408051602060026001851615610100026000190190941693909304601f8101849004840282018401909252818152959950879450925084019050828280156104265780601f106103fb57610100808354040283529160200191610426565b820191906000526020600020905b81548152906001019060200180831161040957829003601f168201915b5050845460408051602060026001851615610100026000190190941693909304601f8101849004840282018401909252818152959750869450925084019050828280156104b45780601f10610489576101008083540402835291602001916104b4565b820191906000526020600020905b81548152906001019060200180831161049757829003601f168201915b5050505050905093509350935093509091929356fea265627a7a7231582036c4bbb831d2a620c6b16e88d187870a791fc7bfb6a6bc09a3e478a11163c0a864736f6c63430005100032",
  "source": "pragma solidity >=0.5.0 <0.9.0;\r\n\r\ncontract OrganizationEndorser {\r\n  address admin;\r\n  string name;\r\n  address organization_address;\r\n  string description;\r\n  string location;\r\n\r\n  constructor(\r\n    address _admin,\r\n    address _organization_address,\r\n    string memory _name,\r\n    string memory _description,\r\n    string memory _location\r\n  ) public {\r\n    admin = _admin;\r\n    name = _name;\r\n    organization_address = _organization_address;\r\n    description = _description;\r\n    location = _location;\r\n  }\r\n\r\n  function getOrganizationInfo()\r\n    public\r\n    view\r\n    returns (\r\n      string memory,\r\n      address,\r\n      string memory,\r\n      string memory\r\n    )\r\n  {\r\n    return (name, organization_address, description, location);\r\n  }\r\n\r\n  address[] allEmployees;\r\n\r\n  function addEmployees(address employee_address) public {\r\n    require(msg.sender == organization_address);\r\n    allEmployees.push(employee_address);\r\n  }\r\n\r\n  function totalEmployees() public view returns (uint256) {\r\n    return allEmployees.length;\r\n  }\r\n\r\n  function getEmployeeByIndex(uint256 index) public view returns (address) {\r\n    return allEmployees[index];\r\n  }\r\n}\r\n",
  "sourcePath": "C:\\Users\\FARHAN\\Desktop\\Practice\\BlockBuster_Bit-n-Build\\src\\contracts\\OrganizationEndorser.sol",
  "compiler": {
    "name": "solc",
    "version": "0.5.16+commit.9c3226ce.Emscripten.clang"
  },
  "schemaVersion": "3.4.13",
  "updatedAt": "2023-04-05T19:25:36.814Z",
  "devdoc": {
    "methods": {}
  },
  "userdoc": {
    "methods": {}
  }
}