{
  "contractName": "Skills",
  "abi": [
    {
      "constant": false,
      "inputs": [
        {
          "internalType": "string",
          "name": "_name",
          "type": "string"
        },
        {
          "internalType": "address",
          "name": "_employee",
          "type": "address"
        }
      ],
      "name": "addEmployeeToSkill",
      "outputs": [],
      "payable": false,
      "stateMutability": "nonpayable",
      "type": "function"
    },
    {
      "constant": true,
      "inputs": [],
      "name": "getSkillLength",
      "outputs": [
        {
          "internalType": "uint256",
          "name": "",
          "type": "uint256"
        }
      ],
      "payable": false,
      "stateMutability": "view",
      "type": "function"
    },
    {
      "constant": true,
      "inputs": [
        {
          "internalType": "uint256",
          "name": "index",
          "type": "uint256"
        }
      ],
      "name": "getSkillsByIndex",
      "outputs": [
        {
          "internalType": "string",
          "name": "",
          "type": "string"
        }
      ],
      "payable": false,
      "stateMutability": "view",
      "type": "function"
    },
    {
      "constant": true,
      "inputs": [
        {
          "internalType": "uint256",
          "name": "index",
          "type": "uint256"
        }
      ],
      "name": "getTotalEmployeeInSkillByIndex",
      "outputs": [
        {
          "internalType": "uint256",
          "name": "",
          "type": "uint256"
        }
      ],
      "payable": false,
      "stateMutability": "view",
      "type": "function"
    },
    {
      "constant": true,
      "inputs": [
        {
          "internalType": "string",
          "name": "_name",
          "type": "string"
        }
      ],
      "name": "getTotalEmployeeInSkillByName",
      "outputs": [
        {
          "internalType": "uint256",
          "name": "",
          "type": "uint256"
        }
      ],
      "payable": false,
      "stateMutability": "view",
      "type": "function"
    },
    {
      "constant": true,
      "inputs": [
        {
          "internalType": "uint256",
          "name": "skill_index",
          "type": "uint256"
        },
        {
          "internalType": "uint256",
          "name": "emp_index",
          "type": "uint256"
        }
      ],
      "name": "getEmployeeInSkillByIndex",
      "outputs": [
        {
          "internalType": "address",
          "name": "",
          "type": "address"
        }
      ],
      "payable": false,
      "stateMutability": "view",
      "type": "function"
    },
    {
      "constant": true,
      "inputs": [
        {
          "internalType": "string",
          "name": "_name",
          "type": "string"
        },
        {
          "internalType": "uint256",
          "name": "emp_index",
          "type": "uint256"
        }
      ],
      "name": "getEmployeeBySkillName",
      "outputs": [
        {
          "internalType": "address",
          "name": "",
          "type": "address"
        }
      ],
      "payable": false,
      "stateMutability": "view",
      "type": "function"
    }
  ],
  "bytecode": "0x608060405234801561001057600080fd5b506108bd806100206000396000f3fe608060405234801561001057600080fd5b506004361061009a576000357c0100000000000000000000000000000000000000000000000000000000900480638673de53116100785780638673de5314610196578063bb50d77214610228578063e518dc3c14610274578063f4cee6171461031a5761009a565b80632e2acc4c1461009f578063359c410f1461015f5780633dc1a6bc1461018e575b600080fd5b61015d600480360360408110156100b557600080fd5b8101906020810181356401000000008111156100d057600080fd5b8201836020820111156100e257600080fd5b8035906020019184600183028401116401000000008311171561010457600080fd5b91908080601f0160208091040260200160405190810160405280939291908181526020018383808284376000920191909152509295505050903573ffffffffffffffffffffffffffffffffffffffff1691506103c29050565b005b61017c6004803603602081101561017557600080fd5b503561051f565b60408051918252519081900360200190f35b61017c6105af565b6101b3600480360360208110156101ac57600080fd5b50356105b6565b6040805160208082528351818301528351919283929083019185019080838360005b838110156101ed5781810151838201526020016101d5565b50505050905090810190601f16801561021a5780820380516001836020036101000a031916815260200191505b509250505060405180910390f35b61024b6004803603604081101561023e57600080fd5b508035906020013561065f565b6040805173ffffffffffffffffffffffffffffffffffffffff9092168252519081900360200190f35b61017c6004803603602081101561028a57600080fd5b8101906020810181356401000000008111156102a557600080fd5b8201836020820111156102b757600080fd5b803590602001918460018302840111640100000000831117156102d957600080fd5b91908080601f01602080910402602001604051908101604052809392919081815260200183838082843760009201919091525092955061071b945050505050565b61024b6004803603604081101561033057600080fd5b81019060208101813564010000000081111561034b57600080fd5b82018360208201111561035d57600080fd5b8035906020019184600183028401116401000000008311171561037f57600080fd5b91908080601f0160208091040260200160405190810160405280939291908181526020018383808284376000920191909152509295505091359250610782915050565b6000826040518082805190602001908083835b602083106103f45780518252601f1990920191602091820191016103d5565b51815160209384036101000a60001901801990921691161790529201948552506040519384900301909220541515915061047090505760018054808201808355600092909252835161046d917fb10e2d527612073b26eecdfd717e6a320cf44b4afac2b0732d9fcbe2b7fa0cf6019060208601906107f0565b50505b6000826040518082805190602001908083835b602083106104a25780518252601f199092019160209182019101610483565b51815160209384036101000a600019018019909216911617905292019485525060405193849003810190932080546001810182556000918252939020909201805473ffffffffffffffffffffffffffffffffffffffff191673ffffffffffffffffffffffffffffffffffffffff9490941693909317909255505050565b6000806001838154811061052f57fe5b9060005260206000200160405180828054600181600116156101000203166002900480156105945780601f10610572576101008083540402835291820191610594565b820191906000526020600020905b815481529060010190602001808311610580575b50509283525050604051908190036020019020549050919050565b6001545b90565b6060600182815481106105c557fe5b600091825260209182902001805460408051601f60026000196101006001871615020190941693909304928301859004850281018501909152818152928301828280156106535780601f1061062857610100808354040283529160200191610653565b820191906000526020600020905b81548152906001019060200180831161063657829003601f168201915b50505050509050919050565b6000806001848154811061066f57fe5b9060005260206000200160405180828054600181600116156101000203166002900480156106d45780601f106106b25761010080835404028352918201916106d4565b820191906000526020600020905b8154815290600101906020018083116106c0575b5050915050908152602001604051809103902082815481106106f257fe5b60009182526020909120015473ffffffffffffffffffffffffffffffffffffffff169392505050565b600080826040518082805190602001908083835b6020831061074e5780518252601f19909201916020918201910161072f565b51815160209384036101000a6000190180199092169116179052920194855250604051938490030190922054949350505050565b600080836040518082805190602001908083835b602083106107b55780518252601f199092019160209182019101610796565b51815160209384036101000a60001901801990921691161790529201948552506040519384900301909220805490925084915081106106f257fe5b828054600181600116156101000203166002900490600052602060002090601f016020900481019282601f1061083157805160ff191683800117855561085e565b8280016001018555821561085e579182015b8281111561085e578251825591602001919060010190610843565b5061086a92915061086e565b5090565b6105b391905b8082111561086a576000815560010161087456fea265627a7a72315820ebd6e13a537df33e58bcdb8450bae3d1e3bf79e00b1d397fe329abc454244f6764736f6c63430005100032",
  "source": "pragma solidity >=0.5.0 <0.9.0;\r\n\r\ncontract Skills {\r\n  mapping(string => address[]) skillmap;\r\n  string[] skill;\r\n\r\n  function addEmployeeToSkill(string memory _name, address _employee) public {\r\n    if (skillmap[_name].length == 0) {\r\n      skill.push(_name);\r\n    }\r\n    skillmap[_name].push(_employee);\r\n  }\r\n\r\n  function getSkillLength() public view returns (uint256) {\r\n    return skill.length;\r\n  }\r\n\r\n  function getSkillsByIndex(uint256 index) public view returns (string memory) {\r\n    return skill[index];\r\n  }\r\n\r\n  function getTotalEmployeeInSkillByIndex(uint256 index)\r\n    public\r\n    view\r\n    returns (uint256)\r\n  {\r\n    return skillmap[skill[index]].length;\r\n  }\r\n\r\n  function getTotalEmployeeInSkillByName(string memory _name)\r\n    public\r\n    view\r\n    returns (uint256)\r\n  {\r\n    return skillmap[_name].length;\r\n  }\r\n\r\n  function getEmployeeInSkillByIndex(uint256 skill_index, uint256 emp_index)\r\n    public\r\n    view\r\n    returns (address)\r\n  {\r\n    return skillmap[skill[skill_index]][emp_index];\r\n  }\r\n\r\n  function getEmployeeBySkillName(string memory _name, uint256 emp_index)\r\n    public\r\n    view\r\n    returns (address)\r\n  {\r\n    return skillmap[_name][emp_index];\r\n  }\r\n}\r\n",
  "sourcePath": "C:\\Users\\FARHAN\\Desktop\\Practice\\BlockBuster_Bit-n-Build\\src\\contracts\\Skills.sol",
  "compiler": {
    "name": "solc",
    "version": "0.5.16+commit.9c3226ce.Emscripten.clang"
  },
  "schemaVersion": "3.4.13",
  "updatedAt": "2023-04-05T19:25:41.240Z",
  "networkType": "ethereum",
  "devdoc": {
    "methods": {}
  },
  "userdoc": {
    "methods": {}
  }
}